S01E00005A69676265654D696E696D616C5F656E646465766963652E733337B3
S3150800600000100020058400086DEE000871EE0008F7
S315080060109B24030875EE00087DEE00089B24030800
S315080060209B2403089B2403089B2403089B2403083A
S3150800603081EE0008E0F403089B2403089B24030868
S31508006040F98800089B2403089B2403089B2403085B
S315080060509B2403089B2403089B2403089B2403080A
S315080060609B240308E57A0008112203089B240308E9
S315080060709B240308C57900080D2203089B240308FE
S315080060809B2403089B2403089B2403089B240308DA
S315080060909B240308FD9100089B2403089B240308FE
S315080060A09B24030879930008559300089B2403084A
S315080060B09B240308C5180208A9220208C5890308F3
S315080060C0C1890308911A0208D1890308C9890308F6
S315080060D081220208CD890308E92202084D23020815
S315080060E09B2403089B2403088DEF00089B240308C0
S315080060F0CB3B03089B2403089B2403089B24030823
S315080061009B240308796100089B2403089B24030841
S315080061109B2403089B2403089B2403089B24030849
S315080061209B2403089B2403089B2403089B24030839
S315080061309B2403089B2403089B2403089B24030829
S315080061409B2403089B2403089B240308D1420308C5
S31508006150090902089B240308758703087B87030837
S315080061609B2403089B2403089B2403089B240308F9
S31508006170013800D0FCE770472DE9F74319A5D5E9A2
S3150800618000451AA7D7E900672022134BDFF8648079
S31508006190C3F8A020D8F888301B0705D102220F4B78
S315080061A05A6203B0BDE8F083414668462CF06FFB9F
S315080061B000982AF031FE22462B462AF0A7FE3B46D7
S315080061C032462AF0CDFF9DF80490054B03EBC90330
S315080061D0C3E90001DEE700BF00F003500060005984
S315080061E0901700206666666666660A40000000002C
S315080061F000FEAF4000400059194910B514A3D3E971
S3150800620000230446D1E900012AF0C8FC0022154BF8
S315080062102AF07CFE10A3D3E900232AF0A1FF2BF075
S3150800622057F907EE900AF5EEC07AF1EE10FAB8BF04
S31508006230DFED0D7AC4ED007A17EE900A2AF00EFE0D
S31508006240BDE8104002460B46084814F02FB800BFB8
S31508006250AE47E17A14AEEF3FF6285C8FC2F5FC3FF5
S315080062609017002000002E400000000028AE03080A
S3150800627030B514A3D3E900230F4D85B00446D5E9FC
S3150800628002012AF06DFF00220C4B2AF03FFE2BF08C
S315080062901FF9D5E902232060CDE902232AF0DEFDA5
S315080062A0DDE90223CDE90001054813F0FFFF05B03B
S315080062B030BD00BFAFF300809017002000005940A2
S315080062C031AE03086666666666660A400000000028
S315080062D02DE9F04F4FF0020A8BB0994608AE0DF142
S315080062E01F030393CDF808A001960389044600937B
S315080062F083790F4690464188828840789DF858B041
S3150800630010F08CFD054650B10090A38800206288E5
S31508006310414911F05DF928460BB0BDE8F08F9DF8AC
S315080063201F002FF0E1F838B12846A38862883B4958
S3150800633011F04EF98D25EEE7524631469DF81F00BD
S315080063402FF0A1F8034600285DD0149A1AB1BDF8BB
S315080063505420904257D800229DF81FA00992AAF10E
S31508006360410101295FFA83FC3DD830460CF1FF3C18
S315080063702B495FFA8CFE0592059A0130724528DB97
S315080063804FF0040C0991BBF1000F2FD109A918226F
S3150800639024489FED1F7B02FB0704204684ED027B01
S315080063A062460830059334F03CFC059BB8F1000FB3
S315080063B001D088F800A0B9F1000F01D0A9F8003083
S315080063C0149A002AA7D01A46149808A934F029FC6A
S315080063D0A1E790F800C0144A8CEA01015143059AD6
S315080063E001320592C8E7BBF1000F07D02346524693
S315080063F06146304600970EF02DFC8CE7BCF1080F7D
S31508006400D4D83146C3E7012585E700BFAFF300803E
S315080064100000000000000000172B0408482B0408A1
S31508006420C59D1C81F01700209301000100000000A3
S315080064302DE9F04F2DED088B8DB09DED1E7B09EEF5
S31508006440903ADDE920430A93229B09EE100A8A4610
S315080064500792069351EC170B53EC172BB0EE478AAD
S31508006460F0EE678A2AF0BAFF80B14FF0FF3251EC9E
S31508006470180BCF4B2AF0DAFF40B94FF0FF326FF412
S31508006480801351EC180B2AF0B3FF98B1069B5146BE
S3150800649022930A9B19EE100ACDE9204319EE903A89
S315080064A0079A8DED1E8B0DB0BDEC088BBDE8F04F3D
S315080064B000F0A2B90022002351EC180B2AF098FF2D
S315080064C0002800F0448118EE903A18EE108A03F17D
S315080064D00049069BC9F30A5013F48063A0F2FF3003
S315080064E008BF06240B932AF0A7FCA1A3D3E900232F
S315080064F02AF00CFDA0A3D3E900232AF051FBC9F327
S3150800650013050F4645F07F5106460022A94B404623
S3150800651041F440112AF042FB99A3D3E900232AF05B
S31508006520F5FC02460B46304639462AF039FB2AF076
S3150800653087FF83462AF080FC93A3D3E90023064607
S315080065400F462AF0E3FC00229B4B2AF029FB2AF08F
S3150800655077FF8FA3D3E900230546394630462AF04C
S31508006560D5FC064628460F462AF066FC8AA3D3E9D8
S3150800657000232AF0CBFC02460B46304639462AF061
S315080065800DFB02460B4606460F462AF0BFFC32466E
S3150800659041EC1A0B3B46304639462AF001FB0022ED
S315080065A041EC1B0B854B51EC1A0B2AF0D9FD002246
S315080065B0834B2AF0F5FA02460B4651EC1A0B2AF0E1
S315080065C0CFFD00227F4B2AF0EBFA02460B4651EC30
S315080065D01A0B2AF0C5FD324641EC1A0B3B46002041
S315080065E04FF080412AF0DAFA02460B4651EC1A0BB4
S315080065F02AF0D6FA02460B4651EC1B0B2AF0B0FDE0
S3150800660005F2FF350022704B2AF0CAFA00222B0544
S315080066102AF07CFC42464B4606460F462AF006FF01
S31508006620002840F09780CDE908670BF16303C72B74
S31508006630069B34BF04250525190521D558A3D3E99A
S315080066400023404649462AF0E7FE002800F0BE80AF
S3150800665055A3D3E90023404649462AF0C9FE002837
S3150800666000F0B48000255C45CCBFA4EB0B000024E9
S31508006670AB46069BC8BF00F1FF3443F4806306931C
S315080066800A9B9D4238BF5E1B069B28BF002613F057
S31508006690020702D0002D18BF0026BBF1000F07D055
S315080066A0DDE90823404649462AF05AFD80468946D0
S315080066B00022002351EC180B2AF09AFE10B109F1BA
S315080066C000439946069B514623F40063CDE90363CC
S315080066D019EE100A19EE903ACDE90089079A029444
S315080066E000F08AF875B3069B024613F0200F00F1F6
S315080066F0010619EE903A14BF45206520514619EE59
S31508006700104AA0470523002205930A238BEAEB705B
S31508006710CDE90232A0EBEB704FEADB73013D019342
S31508006720009019EE903A3246514619EE100A049531
S3150800673030F0B8FF37B1079BC51A079B58190A9B53
S31508006740AB424CD80DB0BDEC088BBDE8F08F59ECC8
S31508006750188BBEE6002230463946194B2AF000FD52
S315080067600BF1FF3BCDE908015FE700BFAFF30080FF
S31508006770FB799F501344D33FB3C8608B288AC63F22
S3150800678061436F63A787D23F71A379094F930A4084
S315080067901655B5BBB16B0240EF39FAFE422EE63FFD
S315080067A02D431CEBE2361A3F0000000080842E4180
S315080067B0FFFFEF7F0000F83F0000E03F00002C409D
S315080067C000002440000018400000F03F002C3FF471
S315080067D057AF0B9B002B3FF453AF013C50E70246E3
S315080067E019EE903A5146202019EE104AA047013575
S315080067F0A3E700BF000000002DE9F04F2DED088B40
S315080068008FB0DDE920AB08EE100A0F4608EE902A95
S3150800681009EE103ADDE922535246049350465B4688
S315080068205946249E2AF0DAFDA0B9049B23962293A2
S3150800683003232193B84B209318EE902A19EE103AA9
S31508006840394618EE100A0FB0BDEC088BBDE8F04FBC
S3150800685030F060BE4FF0FF326FF480135046594651
S315080068602AF0C6FD30B1049B239622930423219374
S31508006870AA4BE0E74FF0FF3250465946A84B2AF09C
S31508006880D5FD70B1A74A06F00403002B08BF032202
S31508006890A54B1CBF1346042204992396CDE9212152
S315080068A0C9E7504698A3D3E9002359462AF0BEFD06
S315080068B038B997A3D3E90023504659462AF098FDDC
S315080068C098B1049B18EE902ACDE92253394619EE61
S315080068D0103A18EE100ACDE920AB24960FB0BDEC9D
S315080068E0088BBDE8F04FFFF7A3BD002200235046F2
S315080068F059462AF07DFD002800F081805B46524605
S31508006900002000212AF04AF9012382468B46059386
S3150800691016F4806F08BF06253021A94606ABA5F1F7
S315080069202002B9F1090FA5EB090406D909F1FF39C7
S315080069304A4503F8011BF4D12024594650462AF04B
S315080069407FFD7A4B054603EBC90393ED007BB0EE5A
S3150800695047AAF0EE67AA2AF06FFA02460B46504697
S3150800696059462AF01BF953EC1A2B2AF0CFFA02469D
S315080069700B4643EC1B2B2AF08BFD80462AF04CFA7B
S3150800698002460B4651EC1B0B2AF008F902460B4649
S3150800699043EC1B2B0022664B2AF048FD88B308F10E
S315080069A0010840462AF038FA02460B4651EC1A0B03
S315080069B02AF028FD10B14FF000080135B9F1000F93
S315080069C051D128462AF038FA02460B46504659460F
S315080069D02AF0E4F80022564B804689462AF008FD3C
S315080069E030B1002240464946514B2AF01FFD10B1EE
S315080069F0E80700D5013506AB0A2223445AE005907C
S31508006A0086E7002251EC1B0B494B2AF0F1FC0028C3
S31508006A10D4D1B8F1000F02D018F0010FCED008F18A
S31508006A200108CBE7B8FBF1F001FB1082B8F1090FBA
S31508006A3002F1300209F1FF3904F1010403F8012BD0
S31508006A4028D83021A14406AA202C11D04C4504F19F
S31508006A50010321D104F138020DEB02042E2204F8B9
S31508006A60202C1C46C7E70A2106AB2344202CD9D183
S31508006A7006F00303012B06AB39D1049A002A36D057
S31508006A80059A12B916F00C0F02D0049A013A04922C
S31508006A90302214E08046E9E7A1541C46D4E795FB6A
S31508006AA0F2F102FB1155303503F8015B01340D464E
S31508006AB00029DDD0202CF2D1DAE71A5501340499E1
S31508006AC0A14214D9202CF8D1049A0093CDE90142A9
S31508006AD019EE103A18EE902A394618EE100A03965F
S31508006AE030F018FD0FB0BDEC088BBDE8F08F202CF8
S31508006AF0EAD0059AF2B12D2104F138026A4402F867
S31508006B00201C0134E0E700BF0000000065CDCD4140
S31508006B100000000065CDCDC1C2460408C64604087B
S31508006B20FFFFEF7FBD460408B9460408D0460408AF
S31508006B300000E03F710704D504F138022B216A44AE
S31508006B40DDE73207C0D504F1380220216A44D6E7CA
S31508006B5070B58EB02C22002103A834F089F864237E
S31508006B604FF00232012108938DF81010CDE9052364
S31508006B700B238DF83430504B1B88D80700F19580CD
S31508006B8008464E4C1EF0E8FA4D4B0A224D494E482F
S31508006B901A704FF42873ADF8123015F043F92060D7
S31508006BA020B940F22221494808F060F805212068FA
S31508006BB031F02BFB20B140F22921444808F056F861
S31508006BC020680C2500F09AFF414B2068196831F0BF
S31508006BD082FB1FF095F9684309901FF091F9684305
S31508006BE00DEB05010790206815F088FC20B140F2EE
S31508006BF03E21364808F03AF800223649206831F036
S31508006C00F2FB20B14FF41071304808F02FF8324EDD
S31508006C1040F20353314D96F900002B8005237F2857
S31508006C20AB7001D11EF092FB3378EB701FF068F958
S31508006C3000EB80008000A8801FF062F90023C000E6
S31508006C404FF0FF31E8804FF0FF30AB6018A3D3E96F
S31508006C5000231EF053FC2249206831F01CFF02A9CC
S31508006C60206831F09AFB20B140F27321174807F0EB
S31508006C70FDFF042220680DEB020115F009F904282E
S31508006C8004D040F27621114807F0F0FF01A901204F
S31508006C9032F095F808F02EF901201FF08DFB2BF045
S31508006CA0E1FE1FF0B3FB1EF0C3FB0EB070BD00BFC4
S31508006CB00A0020FF420300006249002044450020E4
S31508006CC0564C00208551020810130020EC89040850
S31508006CD060110020624C0020B915002030450020C4
S31508006CE06552020810B5054C237833B9044B13B125
S31508006CF0044800E000BF0123237010BD601B00207C
S31508006D0000000000508D040808B5034B1BB1034969
S31508006D10034800E000BF08BD00000000641B002017
S31508006D20508D0408A3F5803A704700BF174B002B17
S31508006D3008BF134B9D46FFF7F5FF00218B460F460C
S31508006D401348144A121A33F093FF0E4B002B00D047
S31508006D5098470D4B002B00D09847002000210400CF
S31508006D600D000D48002802D00C4800E000BF2AF0AC
S31508006D70FBFD200029002BF0E3F92AF0E1FD00BF16
S31508006D8000000800000000000000000000100020BD
S31508006D9090170020984C002000000000000000001A
S31508006DA0F0B5574EA7B008AC0FCE0FC40FCE0FC420
S31508006DB096E80300002584E80300032701245022EF
S31508006DC0294612A84F4ECDE9055507958DF80C5062
S31508006DD08DF80D508DF80E708DF80F508DF81050F7
S31508006DE08DF811508DF8125033F042FF21462A20B3
S31508006DF08DF848408DF84D408DF852408DF8574033
S31508006E008DF85C408DF861408DF866408DF86B40D2
S31508006E108DF870408DF875408DF87A408DF87F4072
S31508006E208DF884408DF889408DF88E408DF8934012
S31508006E3002F094FD10214FF4B06003F075F92A466C
S31508006E40314930468DF8175004F0EAF98DF81900E3
S31508006E504FF4B06002F09EFD4FF47A73B0FBF3F086
S31508006E6040F272630B9302238DF823309DF8193094
S31508006E702A46ADF81A00009330462B4623498DF86A
S31508006E8024708DF8215004F0E5F990238DF84930E7
S31508006E9091230A9008AA304605A98DF84E308DF838
S31508006EA010408DF80E408DF80D408DF848408DF84D
S31508006EB04C408DF84D408DF8514004F001FA12AA65
S31508006EC0304603A904F022F94FF48033F360104BDF
S31508006ED0D3F824232243C3F82423D3F8242342F4E3
S31508006EE08032C3F824234FF40032B36A43F0020316
S31508006EF0B362084BC3F884215A6027B0F0BD00BFBF
S31508006F004CAE030800400059005A62028096980069
S31508006F1000C0035000E100E008B52BF0E5F8FFF7E4
S31508006F203FFF0822014BDA6008BD00BF0040005948
S31508006F3010B5022201240F4BC3F8A040C3F8A020C5
S31508006F400D4B186800F04AFB21460C4800F008FC77
S31508006F50FF210B480BF0FEFC4EF6602120F092F95B
S31508006F60FF2108480BF0F6FCBDE81040002120F090
S31508006F7089B900BF00D00350D8100020B8450020BA
S31508006F80101C00207C1B002007B51BF003FD002108
S31508006F900A4A0B4B009004200BF08EFF33F00CF8D6
S31508006FA000210090074B0420044A0BF085FF0022BD
S31508006FB0054B1A7003B05DF804FB00BFA7AE0308C3
S31508006FC092AE0308AFAE0308D849002007B50120E2
S31508006FD00CF014FC00210090054B0420054A0BF028
S31508006FE06BFF0122044B1A7003B05DF804FB00BF67
S31508006FF03BB50308B6AE0308D8490020F0B52DED19
S31508007000028B85B02EF080F90228064640F0DD8016
S31508007010704F9FED718A384600F0F6FAD7ED017A7F
S3150800702067EE887AFDEEE77ADFED6C8A17EE904A0E
S31508007030D7ED027A67EEA87AFDEEE77A17EE905A50
S31508007040D7ED007A67EE887AFDEEE77A0A2717EE1B
S31508007050903A93FBF7F3ADF80C302923002240F25F
S3150800706002410093012003AB2EF085FC00215C4B06
S315080070705C4A009004200BF01FFFB4FBF7F32124B1
S31508007080002240F20541ADF80C30012003AB009414
S315080070902EF071FC0021544B524A009004200BF04C
S315080070A00BFFB5FBF7F3002240F20341ADF80C30B5
S315080070B0012003AB00942EF05EFC00214B4B494A9D
S315080070C0009004200BF0F8FE494B00229D885F884B
S315080070D01B884FF61141ADF80C3003AB0093012025
S315080070E041F2020301942EF056FC0021414B3D4A21
S315080070F0009004200BF0E0FE03AB00224FF612418D
S315080071000093012041F202030194ADF80C702EF0B1
S3150800711042FC0021384B334A009004200BF0CCFE89
S3150800712003AB00224FF613410093012041F20203FC
S315080071300194ADF80C502EF02EFC304D0021304B4A
S31508007140284A009004200BF0B7FE2846FFF790F86F
S3150800715095ED007A27EE287ABDEEC77A17EE103A33
S315080071604FF4807240F60431ADF80C30012003ABC1
S3150800717000942EF000FC234D0021234B194A009061
S3150800718004200BF099FE2846FFF736F8D5ED007A6D
S3150800719067EE887AFDEEE77A17EE903A00224FF40A
S315080071A08061ADF80C30012003AB00942EF0E3FBB0
S315080071B0164B0C4A0090002104200BF07DFE01229C
S315080071C0134BC3F8A020C3F8A06005B0BDEC028B32
S315080071D0F0BD00BF9C1B002000007A440000C84296
S315080071E0D8AE0308EDAE030801AF030815AF0308D0
S315080071F0B84500202AAF03083EAF0308E81B002065
S3150800720054AF0308EC1B002069AF03087FAF0308DF
S3150800721000E0035013B52EF077F802280CD10D4B79
S315080072201C78A4B9FF210C480BF094FB214602B048
S31508007230BDE8104020F026B80CF052FF074B01902D
S31508007240009300210420064B064A0BF035FE02B0D7
S3150800725010BD00BFD8490020A81B00203BB5030875
S3150800726092AF030897AF030813B504460B4B01907A
S315080072700093002104200A4B0A4A0BF01DFE54B95C
S31508007280FF2109480BF066FB40F6B83102B0BDE8AD
S3150800729010401FF0F7BF02B010BD00BFCE3F040874
S315080072A092AF0308ACAF0308A81B00202DE9F04FE6
S315080072B0002191B00420504A0BF0FEFD23234F4CC9
S315080072C023700123A37063704D4B186800F07AF998
S315080072D020682AF011FF002843D14A4812F0E6FF39
S315080072E0FFF71AFEFF2348491A4648480BF0F2FAF8
S315080072F0FF2347491A4647480BF0ECFAFF2346494D
S315080073001A4646480BF0E6FAFF2345491A46454809
S315080073100BF0E0FAFF230026434D1A46434944483A
S315080073200BAC0BF0D7FA0FCD0FC42B6800204149E0
S31508007330236010F04DF934463F4FDFF81081DFF82F
S3150800734010912EF027F8F5B285420CDB2EF022F8C4
S31508007350224603463949002010F03AF911B0BDE833
S31508007360F08F3748BAE7284607A91BF03FF90246C7
S3150800737000283CD19DF81C30032B34D904238DF802
S315080073801C302A464146002010F03AF99DF81C3078
S3150800739010AA02EB8303494653F8142C002010F078
S315080073A02FF99DF829209DF81D3028469DF820A024
S315080073B0BDF81EB0059204931BF012F9DDE90432FC
S315080073C0CDE901B01F490020CDF800A010F018F94A
S315080073D00DF1210010F088F8013400201A49E4B2B2
S315080073E010F0F6F801E0002BCBD10136A9E73946B3
S315080073F0002010F0EDF8F8E7C3AF0308D9490020DC
S31508007400D4100020E1AF030815720008F01B002015
S31508007410CD6F0008A81B0020896F0008C81B002034
S31508007420FD6F00087C1B0020B0B00308316F000810
S31508007430101C002008B0030856B0030876B00308ED
S31508007440F4AF030835B0030836F80308790C0408C6
S315080074504D20040891287FB50ED1FF211D480BF059
S3150800746079FA1FF089FFFF211B480BF073FA04B065
S31508007470BDE870401FF080BF902828D100252C4613
S315080074800BE0694630461BF0B1F828B99DF8003084
S31508007490012B04BF0134E4B201352DF07BFFEEB2B7
S315080074A08642EEDB9CB101220C4BFF2109481A707B
S315080074B00BF050FA00211FF0E5FEFF2106480BF0FD
S315080074C049FA002104B0BDE870401FF0DBBE04B0E5
S315080074D070BD00BF7C1B0020101C0020D84900206E
S315080074E038B505462BF07AF8044688B9094B9D420B
S315080074F008D1FF2108480BF02DFA2146BDE838408F
S315080075001FF0C0BE054B9D4202D1FF210448F2E799
S3150800751038BD00BF3CF10308F01B002054F10308F6
S31508007520C81B002013B50446009000210420134B05
S31508007530134A0BF0C1FC54B9FF2112480BF00AFAA2
S315080075404EF6602102B0BDE810401FF09BBE0E4A01
S31508007550002104200BF0B0FCFF210C480BF0FAF9CF
S315080075601FF00AFFFF2107480BF0F4F91FF004FF8C
S315080075700022074B1A7002B010BD00BFCE3F0408A8
S31508007580B6AE0308101C00208DB003087C1B002033
S31508007590D84900207FB50123ADF80630ADF80C3088
S315080075A0074B4000ADF804000291186801A901F0E4
S315080075B0B9FB003818BF0120404207B05DF804FB4C
S315080075C0301C002010B50446022008F07DFC024B52
S315080075D000201C6010BD00BF301C002008B500F05C
S315080075E04DFE30B12D2806D10448BDE8084012F0FA
S315080075F05DBE0348F9E70348F7E700BFC4B00308D0
S31508007600D5B00308DDB00308F0B51B4E8BB00546B0
S3150800761007A9306800F080FE08A90446306800F023
S31508007620A5FE09A90443306800F0D2FE079B099F0E
S31508007630089E54EA00022B606F60AE6017D11846A8
S3150800764029F00CFC02460B463846CDE9042329F0FE
S3150800765005FCCDE90201304629F000FCDDE90423EA
S31508007660CDE90001054812F021FE0BB0F0BD044833
S3150800767012F01CFEF9E700BFD8100020E7B0030897
S315080076800EB103082DE9F34706460F4608F0EAFB54
S315080076904FF0000A04460D46DFF83C905FFA8AF878
S315080076A0B8450BD208F0DEFB031B61EB0501B3F509
S315080076B07A7F71F100030AF1010A02D302B0BDE82C
S315080076C0F087D9F800000DF107012CF0BDFA9DF8F6
S315080076D0073006F80830E1E7E4100020802238B5C4
S315080076E0002104461D4833F0C3FA80211B48FFF7E2
S315080076F0C9FF1A480021024610F8015B0B46422DC5
S3150800770001F1010125D105784D2D22D1A179002954
S315080077100CBF04210A2151FA83F3DBB2581CC0B20C
S31508007720D55C115CD81C01EB05212180991CC9B2D6
S31508007730C0B2555C115C012001EB05216180191D61
S315080077400533C9B2DBB2515CD35C03EB0123A380DA
S3150800775038BD6829D0D10020FAE700BFDD490020EE
S3150800776070B50D4604460E4812F0A0FDA5710B250E
S315080077700C4E2046FFF7B2FF012801D0013D07D184
S31508007780A388628821880848BDE8704012F08EBD3B
S31508007790304612F08BFD642008F096FBE9E700BF3F
S315080077A01AB1030829B103083AB1030830B50A4CDF
S315080077B00A4B22680A4D1A600A4B85B02B600A4BA1
S315080077C0019306F0E3FA2B68029001A92068039357
S315080077D02BF066FE05B030BDA8100020642B0020F3
S315080077E0602B00209C100020A0F00308014B1868AD
S315080077F02BF06ABEA810002038B506F0C7FA044672
S31508007800064D2B68D3F8B00206F0B4FA28682BF0B8
S315080078106EFE2046BDE8384006F0ACBAA810002037
S3150800782010B5274C02F0DEFA02F05CFC236F23F059
S31508007830070343F0030323672AF077FF214B002051
S315080078409B6ADB015EBF4FF480321F4B9A62D4F805
S31508007850203123F0070343F00203C4F82031D4F89B
S31508007860283123F0070343F00203C4F82831D4F87B
S31508007870403123F0030343F00203C4F84031D4F83F
S31508007880603123F0030343F00203C4F86031D4F8EF
S31508007890403223F0030343F00203C4F84032D4F81D
S315080078A0003223F0070343F00203C4F80032D4F889
S315080078B0083223F0070343F00203C4F8083210BD68
S315080078C0008000500040005A0060005A08B50121A7
S315080078D03A2002F043F8044801F0AEF9BDE8084042
S315080078E0024801F0A9B900BFAC100020C010002062
S315080078F030B5214D9DB008AC0FCD0FC495E80F00EB
S3150800790084E80F004FF416532C22002111A80A937D
S3150800791033F0AEF9194B0124109357230422CDE90D
S3150800792012340323159210228DF850308DF85830F2
S3150800793005230DEB0200002117938DF8454033F01F
S3150800794097F94FF480120E4B02A9CDE902230D23B5
S315080079508DF810300E238DF811300A4B08AA0593BE
S3150800796020230693084B0948009310AB8DF81D4059
S3150800797006F0ACFA1DB030BD00F1030800000A504D
S315080079803C000A505D4A0020F01E0020681F0020B7
S31508007990022905D8034B1B68186808B1436A1847BB
S315080079A0704700BFE810002008B50449044807F0EE
S315080079B013FEBDE80840FFF79BBF00BFDC100020A0
S315080079C0601F002001482CF07AB900BF681F00200C
S315080079D0014B1A6A18681047681F002030B51B4DFE
S315080079E095B00DAC0FCD0FC495E80700032384E8C6
S315080079F007008DF84D302923154A1649CDE902238B
S31508007A00154B1022CDE90413002109A8069133F07D
S31508007A102FF94FF48020114B0DAACDE9070309234E
S31508007A208DF824300A238DF825300D4B07A90A93C3
S31508007A3020230B9301238DF831300A4B0A48009313
S31508007A4002AB06F079FD15B030BD00BF20F1030882
S31508007A5000C00550000500060009000824C00550AE
S31508007A607D4A00208C1F0020E81F0020831E012B62
S31508007A7010B512D8012910D8114B04221B6C052108
S31508007A800020C3F3401303F047F90E4B1B68186830
S31508007A90A8B1BDE81040436A18478B1E012B0CD8C5
S31508007AA001280CD8BDE810400022054B05211B6CA7
S31508007AB01046C3F3401303F02FB90129E5D910BDC9
S31508007AC000C00350F410002008B50449044807F024
S31508007AD083FDBDE80840FFF781BF00BFEC1000201A
S31508007AE0E01F002001482CF0BBBA00BFE81F0020A9
S31508007AF0014B1A6A18681047E81F002008B514F0E9
S31508007B0033FD0022014B1A7008BD00BF9D4A0020B4
S31508007B1008B504482AF05DFDBDE8084002482AF089
S31508007B2058BD00BF3CF1030854F1030801482AF088
S31508007B308ABD00BF6CF103080A4601492AF006BC53
S31508007B40AFF403080A4601492AF000BCACF403085E
S31508007B5037B5114B04461A889B78ADF804208DF882
S31508007B6006300E4B1868A0B10323456B01AAFA210B
S31508007B7090F82900A8479DF805309DF804201B01B8
S31508007B8043EA02339DF8062043EA1213236003B042
S31508007B9030BD6FF07E00FAE7B4F403080C2000202D
S31508007BA00D4B10B51C6822885100C2EB2013C1EB9F
S31508007BB0E002B4F90200424303FB03F0B4F90430CF
S31508007BC000135843801300EBE220606200EB80004C
S31508007BD08030001210BD00BF0C20002037B5114BB5
S31508007BE004461A889B78ADF804208DF806300E4BAB
S31508007BF01868A0B10323456B01AAF72190F829005C
S31508007C00A8479DF805309DF804201B0143EA023376
S31508007C109DF8062043EA1213236003B030BD6FF0C7
S31508007C207E00FAE7B4F403080C20002073B5184B5D
S31508007C300546D3F80300B3F807300090ADF80430D2
S31508007C40144B0C46186800B306236A46466BF721A0
S31508007C5090F82900B0479DF801309DF800201B01D7
S31508007C6043EA02339DF8022043EA12132B609DF87B
S31508007C7004309DF803201B0143EA02339DF80520D2
S31508007C8043EA1213236002B070BD6FF07E00FAE774
S31508007C90B4F403080C200020002337B5ADF80430EF
S31508007CA00A4B0446186868B10223456BFD2190F813
S31508007CB0290001AAA847BDF804305BBA9BB2236025
S31508007CC003B030BD6FF07E00FAE700BF0C2000203D
S31508007CD01B4B10B519684A6AA2F59634B1F91E20ED
S31508007CE01205C2EB8030B1F9202004FB120000F522
S31508007CF08040C31391F91C0091F922206043624326
S31508007D00C012921200F500405043B1F91A208012B1
S31508007D1000F50010504300F5005080135843C31374
S31508007D205B4391F91820DB115343A0EB231020EA9B
S31508007D30E070B0F1C85FA8BF4FF0C850001310BD7F
S31508007D400C20002070B588B001AC2246214B03F107
S31508007D501806254618685968083303C5B3422C46E1
S31508007D60F7D11B881C4C2B80206878B31823456BE9
S31508007D70882190F82900A8472368BDF804201A80AE
S31508007D80BDF806205A80BDF808209A80BDF80A205A
S31508007D90DA80BDF80C201A81BDF80E205A81BDF88C
S31508007DA010209A81BDF81220DA81BDF814201A82B3
S31508007DB0BDF816205A82BDF818209A82BDF81A20F6
S31508007DC0DA829DF81D201A7608B070BD6FF07E0025
S31508007DD0FAE700BFBDF403080C20002037B51A4B9C
S31508007DE01A4CD3F82300B3F82720009093F82930CB
S31508007DF02068ADF804208DF8063010B307236A46CC
S31508007E00E121456B90F82900A8472268BDF80030A3
S31508007E109DF9034053839DF8023013779DF804308B
S31508007E2003F00F0141EA0411D1839DF905101B09DE
S31508007E3043EA011313849DF8063082F8223003B012
S31508007E4030BD6FF07E00FAE7B4F403080C2000207A
S31508007E50002373B50524174D8DF807302860286868
S31508007E600123466B0DF10702D02190F82900B0478F
S31508007E709DF80730A3F15602022A09D9602B2A6811
S31508007E8006D0013CE4B20120936B9847002CE6D15A
S31508007E902B689DF8072083F8282044B1FFF752FF86
S31508007EA00446FFF79BFF204440B202B070BD4FF076
S31508007EB0FF30FAE70C2000200F4B37B51C68ACB131
S31508007EC0032816D894F82A30F42100EB431094F8C6
S31508007ED02B30256B00EB83008DF80700012394F8FF
S31508007EE029000DF10702A84703B030BD6FF07E00E8
S31508007EF0FAE76FF00100F7E70C2000200023F7B53A
S31508007F00384E054630688DF806308DF8073000285B
S31508007F1061D0042D62D8446B0123F4210DF10602C9
S31508007F2090F82900A047044630680123476BF221E0
S31508007F3090F829000DF10702B847044360B20028FB
S31508007F403BD1013D01233468032D03D8DFE805F052
S31508007F50373A3D4040F2011284F82C309DF807303C
S31508007F60256B23F0070343F001036285F22194F899
S31508007F7029008DF807300DF107020123A8470446AA
S31508007F8030689DF8063090F82A2003F01F0343EA6C
S31508007F90421390F82B2023F01C03920002F01C02D7
S31508007FA01343056B8DF80630F421012390F8290058
S31508007FB00DF10602A847204440B203B0F0BD40F2D6
S31508007FC00122C9E740F20132C6E740F20142C3E79F
S31508007FD040F20252C0E76FF07E00EEE76FF0010054
S31508007FE0EBE700BF0C2000202DE9F843544B074669
S31508007FF01D68696AB5F908304FEAE17CB1F5FA31CE
S315080080004CF1FF3C03FB0CF2D81701FB0022A3FB43
S315080080100130A1FB014801FB0CF6024412031803C8
S3150800802042EA1352B5F90A3008EB460803FB08F68C
S315080080304FEAE37E04FB0E66A3FB043E76441B0A66
S31508008040B5F806E043EA06631B1842EB2622A3FBB3
S315080080500E3602F500420EFB0266F317721053EA5B
S3150800806066064FF0000069D0B5F910E0C7F580172D
S315080080700EFB08F64FEAEE7904FB0966AEFB04E44C
S315080080802644B5F90E4004FB0CFC4FEAE47801FBE4
S3150800809008CCA4FB01416144490441EAD431640493
S315080080A014EB0E0446EB0101B5F90C6007F0004C21
S315080080B001EBC60140F635464CEA570C0019FF0796
S315080080C0381A6CEB010CA0FB060106FB0C1129F013
S315080080D04FFA8646B5F916204FEA613C02FB0CF7C3
S315080080E0430B43EAC143D41703FB0477A2FB0324DB
S315080080F03C4402FB0CF703FB0477A2FB0323B5F908
S3150800810014601F4406FB01F4530E43EAC7131B18F9
S315080081104FEAE67241EB676702FB0041A6FB0E06D3
S315080081203144C00C40EA4130181847EBE141B5F933
S315080081301230000A40EA016000EB0310BDE8F8833C
S315080081400C2000200F4B1B6893F82B1093F82A205D
S31508008150012303FA02F28B405B1003EB620325222C
S31508008160002902FB03F314BF0A2200221433134426
S3150800817013F10F0248BF03F11E021211027000200C
S31508008180704700BF0C20002000232DE9F341184F4B
S3150800819005463C680E468DF807302CB394F82B300C
S315080081A094F82A209B0003EB42130133F4210DF1C6
S315080081B00602D4F8308094F829008DF80630012399
S315080081C0C04704460DF10700FFF7BCFF3B689DF862
S315080081D007009B6B984731462846FFF727FD204442
S315080081E040B202B0BDE8F0816FF07E00F9E700BF4B
S315080081F00C20002000B589B08DF807100421ADF8D1
S315080082000E100121ADF81C300A4BADF814104000D1
S315080082100DF10701ADF80C000491186803A9069240
S3150800822000F080FD003818BF0120404209B05DF813
S3150800823004FB00BF4C20002000B589B08DF807105C
S315080082400821ADF80E100121ADF81C300A4BADF827
S31508008250141040000DF10701ADF80C0004911868E0
S3150800826003A9069200F05EFD003818BF01204042BF
S3150800827009B05DF804FB00BF4C20002070B5054628
S3150800828086B0022007F020FE1B4B01241D60D02378
S315080082908DF80330194B1A4E019328460DF1030346
S315080082A001A90293ADF80C40ADF81440049600F00D
S315080082B039FD3378602B1CD11248134B0363134BDB
S315080082C04363762380F82930114B8363FFF7C0FD9B
S315080082D010B1012006B070BD2046FFF7EDFD00285D
S315080082E0F7D10420FFF70AFE0028F2D1094B1C70CB
S315080082F0F0E72D20EEE700BF4C200020EC0004003C
S315080083009E4A00201020002039820008F5810008C6
S31508008310952403089F4A002037B5114B0D4618606F
S31508008320104B1B78032B14D16846FFF711FC044643
S31508008330A0B90098FFF734FC07EE900ADFED0A6A49
S31508008340F8EEE77A87EEA67A204685ED007A03B03E
S3150800835030BD694601A8FFF717FFE8E70120F6E7F1
S315080083604C2000209F4A00200000C84237B5154B14
S315080083700D461860144B1B78032B1ED101A8FFF776
S315080083802DFC10B1012003B030BD6846FFF7E0FBB5
S3150800839004460028F6D10098FFF702FC0198FFF77B
S315080083A023FE07EE900ADFED096AFBEECC7A87EE2C
S315080083B0A67A204685ED007AE5E7694601A8FFF723
S315080083C0E3FEE5E74C2000209F4A00200000C84253
S315080083D037B50B4B0D46186001A8FFF75DFC044640
S315080083E058B90198FFF774FC07EE900AFAEECB7AB3
S315080083F02046C5ED007A03B030BD0120FBE700BF7B
S315080084004C20002008B500F02DF8124B12498B427B
S3150800841012D30020114B12498B4218D3FEF786FC63
S31508008420186850F82240586840F822400132986887
S315080084308242F5D30C33EAE70022F8E71C6844F8D1
S31508008440220001325C68A242F8D30833E4E700222E
S31508008450F8E700BF588D0408648D0408648D040885
S31508008460648D04084FF480414FF0FF30114B124AD7
S3150800847010B59A60D3F8882042F47002C3F88820B1
S315080084800E4A91660E4901F5005210660D4850666F
S315080084900220C3F8D000BFF34F8FBFF36F8F0124BC
S315080084A04FF440330848C0F88041D36004600B613C
S315080084B010BD00BF00ED00E000600008009000500D
S315080084C000800044F7FF370000E100E0014B186820
S315080084D0704700BF18110020084B1B6F03F00703F5
S315080084E0022B04D0032B05D0012B05D0FEE7044B45
S315080084F018687047034BFBE7034870470080005035
S31508008500181100201C110020002D310108B5FFF7B5
S31508008510E3FF054B1B6FC3F303330133B0FBF3F0E3
S31508008520024B186008BD00BF0080005014110020DF
S315080085300048704700B4C404014B1868704700BF70
S315080085401C110020054B1860054B1B6F03F0070331
S31508008550032B01D1FFF7DABF704700BF1C110020BB
S315080085600080005000487047002D31014FF0B44399
S315080085709868C0F304400C2822D8DFE800F00921E7
S3150800858021212121071719211B1D1F000F4870479C
S315080085909B6803F04073B3F1807F13D0B3F1007F7B
S315080085A012D00B4A002B08BF10467047094870477F
S315080085B0094870470948704709487047094870478D
S315080085C0002070470848704708487047405DC60055
S315080085D000093D000024F400C0EA210180BA8C019C
S315080085E00048E801005A620280841E0040420F00DB
S315080085F0014B1868704700BF20110020BFF34F8F4A
S315080086000549064BCA6802F4E0621343CB60BFF320
S315080086104F8F00BFFDE700BF00ED00E00400FA053C
S315080086204FF000639B6A03F17842B2F5C04F03D25C
S315080086301968064A914203D0002303708360704785
S31508008640012202709A689B694260F7E707B0CD5E1F
S3150800865073B54F4B04461A781AB102221A7002B043
S3150800866070BDCDE900220028F9D001261E702AF037
S3150800867080F8484D484B186017F00CF92B785BB911
S3150800868000F08CFE40B945480823454A454900682C
S3150800869013F074F800B92E70434B5A6E62619B6EE4
S315080086A0424AA3614FF480439366414B5968E1619E
S315080086B040499960196E2160596E6160D3F870114E
S315080086C0A160196CE160596C21613B49086C18641A
S315080086D0496C5964012151661B6E9C0441D5374A81
S315080086E0D368D807FCD4364B1A68531C3ED04FF4CF
S315080086F080139340334A13664FF400730426314CB3
S315080087002666236629F0F1FE01300DD029F0EDFE2C
S3150800871040F20113984207D04FF4005323664FF4F2
S3150800872080432366C4F870610823264C684623668E
S315080087304FF4805323664FF0006323664FF40023FB
S3150800874001A9636629F0B2FE009B2366019B636656
S315080087502B78002B83D0124B1A6822665B686366F7
S315080087607DE7194AD368D907FCD4BCE7174B1B78B1
S31508008770002BC1D14FF400720C4B5A6603F5A623A1
S315080087805B68002BB8D14FF480120E4B1A66B3E71C
S31508008790A24A0020A04A0020782000202C110020A0
S315080087A070200020007108000080005000900050E2
S315080087B00080004455CEAC0000C0005400000440C0
S315080087C0241100200090004400000450A14A002013
S315080087D070B5224D04462E78012E02D001232B7047
S315080087E070BD0028FCD029F080FE01300BD029F09E
S315080087F07CFE40F20113984205D0194B194A5E6671
S31508008800D368DE07FCD42268174B1A6662685A6674
S31508008810A268C3F87021E2681A6422695A64E26998
S31508008820D00744BF00229A60104B1A68013207D15C
S315080088300F4A127822B90F494968C90748BF1A6012
S3150800884062690D4B5A66A2699A6617F02BF80B4BAC
S31508008850186829F094FF0023C1E700BFA24A002048
S3150800886000900040000004400080004424110020CD
S31508008870A14A002000C00550008000507820002042
S3150800888070B54FF00064A36A03F17842B2F5C04FA1
S3150800889021D21A68124B9A421DD1124E337813F020
S315080088A0FD0F1BD11048FFF7D3FE01254FF4803387
S315080088B00E4A0F49C2F88051CB6015600D4A136104
S315080088C0A36ADB69984704460748FFF781FF04B99E
S315080088D03570204670BD4FF48174FAE70024F8E736
S315080088E007B0CD5EA14A00205020002000E100E03C
S315080088F000A000440090004413B51F4B1B7803B931
S31508008900FEE700231D4CCDE900336A4608231C49BF
S31508008910206812F033FFF0B91A4AD2F84031D2F87B
S3150800892040211F2B4FF0010310D9203A9340019A9A
S315080089301343019308236A461149206812F0D4FEAE
S315080089404FF00053104A1A60FFF758FE9340009AFA
S3150800895013430093EEE70D4B9842F1D1094AD2F83A
S315080089604031D2F840211F2B4FF0010302D9203A9B
S315080089709340DEE79340ECE7A24A00202C11002042
S3150800898000710800008000440B020FF00BE000F0B5
S3150800899070B5D0B1C9B10E4E431E013913F8014F57
S315080089A02046A25D02F00302012A11F8012F08BF32
S315080089B004F12000B55C05F00305012D08BF20323F
S315080089C0801A01D1002CE9D170BD0120FCE700BF57
S315080089D0E58B040805490A681318054883428CBFC5
S315080089E04FF0FF320B601046704700BF2811002079
S315080089F00000042010B40A681378022B11D0142042
S31508008A003023147913FB040307481B585079C340D5
S31508008A10DB4303F00103137008465DF8044BFEF7C9
S31508008A205FBD5DF8044B704730C0035037B5046826
S31508008A30012105463A2000F091FF002301226179C1
S31508008A40207902F069F914223023217913FB0123D6
S31508008A500E4A9B586279D340DB4303F00103237027
S31508008A60A379022B0ED100F01FFC2A46084960792B
S31508008A7000F044FC0123024661792079CDE90033F0
S31508008A8002F0F2F8002003B030BD00BF30C003503A
S31508008A90F589000802681378022B24D014213023A4
S31508008AA0107913FB001310495B585179CB40917923
S31508008AB003F00103012912D1508843EA40034FF617
S31508008AC0E07063F03F039BB2834202D1117053807A
S31508008AD070474FF6DF718B42F9D10021F6E711B9DD
S31508008AE083F001031370704730C0035010B501219D
S31508008AF03A2000F033FF012304220321002002F06C
S31508008B000BF9002029F09FFE0122314B3149C3F8A9
S31508008B1044244FF40022A3F550335A66D1F8FC20BA
S31508008B202C4C12F080721EBFD1F8FC3023F08073F3
S31508008B30C1F8FC302849D1F8803023F0030343F00C
S31508008B400203C1F880302AB1D4F8FC3043F08073B0
S31508008B50C4F8FC304FF4607000F01CFFD4F8F03015
S31508008B601E4A43F00103C4F8F030D4F8FC3000F58F
S31508008B70D52043F08073C4F8FC30194B00F2FC4052
S31508008B801A60184B0222B0FBF3F0174B0138186134
S31508008B90C3F8F0204FF48072C3F804234FF0604303
S31508008BA0124A0020C3F8B02F114AC3F8802ED3F812
S31508008BB0002E42F48072C3F8002EFF2283F820208C
S31508008BC0D3F8002E22F48072C3F8002E10BD00BF21
S31508008BD000D0035000ED00E000800050FF03004085
S31508008BE0001000E0F8590D00000004E055CEACC5B1
S31508008BF0090001004FF06043D3F8802E30B5D20744
S31508008C0015D501240B4D8440D5F8FC2042F080721E
S31508008C10C5F8FC20D3F8002E2243C3F8002E53F8DB
S31508008C202020002AF0D003F82010002030BD1120A3
S31508008C30FCE700BF00ED00E02DE9FF4103680446AC
S31508008C40B3F1B64F04D0354A934251D12F2000E0F4
S31508008C502E20012100F082FE01230A226179207963
S31508008C6002F05AF801230A22E179A07902F054F8B1
S31508008C70092701262A4D4FF030082279637908FB27
S31508008C80025206FA03F302F501521360642007F054
S31508008C90B3FD2379627908FB035306FA02F203F55A
S31508008CA0825364201A6007F0A7FD013FE3D12068CC
S31508008CB0B0F1B64F1FD10323C5F8E834627923799A
S31508008CC043EA0243C5F8EC34E279A37943EA02435E
S31508008CD0C5F8F03440F20113ADF80030E368694690
S31508008CE00293A3680193237C8DF80C3002F090F868
S31508008CF004B0BDE8F081094B9842EBD10323C5F8CF
S31508008D00F8346279237943EA0243C5F8FC34E279F8
S31508008D10A37943EA0243C5F80035DBE7008006502D
S31508008D2000C0035038B5054602F0A0F9044C0128E6
S31508008D3001D1013C00D138BD284602F08BF8F6E790
S31508008D40E193040010B50122437801788478302035
S31508008D509A40054B00FB01331CB903F501531A6011
S31508008D6010BD03F58253FAE700C0035010B501227F
S31508008D7043780178847830209A40054B00FB01330C
S31508008D801CB903F582531A6010BD03F50153FAE7BF
S31508008D9000C003500122437801789A403023594392
S31508008DA0014B5A50704700BF40F003501021302342
S31508008DB00246007813FB0013054950785B58C340F8
S31508008DC003F0010093780BB980F00100704700BFEB
S31508008DD030C003502DE9F04F9A46564B85B01B78A4
S31508008DE006460F461546DDF83C909DF844B0DDF87A
S31508008DF05080002B00F08D80072A00F28C800E9B95
S31508008E00002B00F08880B9F1000F00F08480129BD7
S31508008E10B3F5006F7FDC012802D1109B002B7AD0B6
S31508008E20454B03EB05131B7B002B76D0434C1022D6
S31508008E300021684631F01CFF04EB45141022002F70
S31508008E4059D13946204631F013FF43F210036380A7
S31508008E50BBF1000F03D1E37843F00303E370374A0D
S31508008E600E9B02EB451CCCE90193129B6901013B61
S31508008E70C3F30A009DF84C30012E03F003034FEAB2
S31508008E80836343EA001E53582D48CDF800A000EA34
S31508008E9003004EEA0003535041D113230CF1100E80
S31508008EA0CCF80C309CE80F008EE80F006FF0030139
S31508008EB0DCF81C20109B61F39F02012FCCF81C20C4
S31508008EC0CCF8143003D1CCF81890CCF8043000272D
S31508008ED0194A290102EB051342F80180159A28461A
S31508008EE05A60694622469F605E7302F0D7FC384690
S31508008EF005B0BDE8F08F0021204631F0B9FE4FF4E9
S31508008F0044736380BBF1000FA9D1E37843F03003C3
S31508008F10A4E70C48ECE70C48EAE70C48E8E7B8F1A0
S31508008F20000FD4D19CF8023068F304138CF8023091
S31508008F30CDE700BFA34A00207C200020FC200020AB
S31508008F400F80FFF3028000F0018000F0078000F038
S31508008F5038B5124B05461B78DBB1E0B129F009FCA0
S31508008F600F4A00231146147B54B92B6001251A01B8
S31508008F7001EB03131D738C5029F001FC204638BD04
S31508008F800133082B02F11002EDD129F0F8FB054850
S31508008F90F5E70548F3E70548F1E700BFA34A0020CF
S31508008FA07C200020048000F0028000F0018000F0A0
S31508008FB013B529F0DEFB00230B4A147B7CB9013379
S31508008FC0082B02F11002F8D1019002F009FC074BB8
S31508008FD001981C7029F0D3FB204602B010BD29F079
S31508008FE0CEFB0348F9E700BF7C200020A34A0020F7
S31508008FF0058000F00D4B10B51B78044693B1072881
S3150800900012D829F0B6FB0A4B03EB04131A7B2AB1D4
S3150800901000241C7329F0B3FB204610BD29F0AFFBD2
S315080090200448FAE70448F8E70448F6E7A34A0020A4
S315080090307C200020068000F0028000F0018000F00D
S31508009040154B13B51868002301908DF8043029F0E4
S3150800905090FB124B1C7824B129F091FB104802B002
S3150800906010BD01221A7029F08AFB0E4B01A81C7349
S315080090701C7783F82C4083F83C4083F84C4083F8EF
S315080090805C4083F86C4083F87C4008238DF80730F1
S3150800909002F0D2FB2046E2E730F50308A34A002097
S315080090A0038000F07C2000200A4A08B512785AB1DD
S315080090B007280BD8084A02EB00131B7B43B1002193
S315080090C002F0ACFB002008BD0448FCE70448FAE7B8
S315080090D00448F8E7A34A00207C200020028000F01C
S315080090E0018000F0078000F00A4A08B512785AB1E4
S315080090F007280BD8084A02EB00131B7B43B1012152
S3150800910002F08CFB002008BD0448FCE70448FAE797
S315080091100448F8E7A34A00207C200020028000F0DB
S31508009120018000F0078000F00A4A08B5127852B1AB
S3150800913007280AD8084A02EB00131B7B3BB102F04A
S31508009140FBFB002008BD0548FCE70548FAE705488B
S31508009150F8E700BFA34A00207C200020028000F028
S31508009160018000F0078000F00D4B1B7893B10728AB
S3150800917012D889B10B4B03EB00131B7B73B10A4B57
S315080091801A6D012303FA00F010401ABF00200B7075
S315080091900870704705487047054870470548704786
S315080091A0A34A00207C20002000000450028000F022
S315080091B0018000F0078000F00B4A10B512780C46C3
S315080091C062B107280CD859B1084A02EB00131B7B79
S315080091D043B102F0C3FB2070002010BD0448FCE731
S315080091E00448FAE70448F8E7A34A00207C20002050
S315080091F0028000F0018000F0078000F02DE9F843B6
S31508009200174B1F6D5B6D1F4000D5FEE70126002535
S31508009210144CDFF85480DFF85490374217D023688F
S31508009220C8F850609BB1A168284601316268A16000
S315080092309847637B012B0AD148B909EB45131A7B7A
S3150800924060F341021A731A7F60F341021A770135F7
S31508009250082D4FEA460604F11004DED1BDE8F8836E
S31508009260000004507C20002000200450FC20002030
S3150800927070B5044601250B4E04B970BD94FAA4F0E6
S31508009280B0FA80F005FA00F306EB001224EA0304AC
S315080092905368002BF0D0117B11B191689847EBE722
S315080092A09847E9E7FC21002008B5192001F08AF95A
S315080092B028B14FF00072074BC3F880211A601A20B4
S315080092C001F080F928B14FF08062024BC3F8802183
S315080092D01A6008BD00E100E038B505460C4629F0DD
S315080092E048FA0022044B03EB05135C601A73BDE8C9
S315080092F0384029F044BA00BFFC210020F8B50546DD
S315080093000F46164629F035FA104B05F0FC02D3F83D
S3150800931024140023EC1804F00304144321FA04FC73
S315080093201CF0010F07D00133042BF3D1FF2429F0D9
S3150800933026FA2046F8BDFF2CF9D00122044B03EB90
S315080093400413C3E901761A73F1E700BF00C003509E
S31508009350FC210020074BD3F82404D3F8202403F576
S315080093600053104000F0553020F05020C3F8200478
S31508009370FFF77EBF00C00350074BD3F82404D3F889
S31508009380202403F50053104000F0AA3020F0A02056
S31508009390C3F82004FFF76CBF00C00350024B1968DE
S315080093A0024B186812F0CAB8301100202C110020A0
S315080093B037B5920004460D46019231F02DFD431C47
S315080093C00BD060B929462046019A31F01AFC0028CC
S315080093D0044808BF002003B030BD0348FBE7034834
S315080093E0F9E700BF10E000F021E000F024E000F00B
S315080093F013B5044601A802F0F1FA9DF806300122D9
S3150800940023804FF4807300206380054B9B680A33E2
S3150800941003F01F0302FA03F3636002B010BD00BF36
S315080094200080E00F10B5044631F0EEFC431C15D061
S31508009430B0B90C4B20469B680A3303F01F02012380
S31508009440934023F003032344984201D1002010BD22
S3150800945050F8042B0132F7D00348F8E70348F6E73B
S315080094600348F4E70080E00F0EE000F021E000F08A
S3150800947024E000F008B529F06DF9014B186008BD25
S315080094803C2A0020014B186829F068B93C2A0020BC
S31508009490044BD3F88420D206FBD4D3F88400C0F357
S315080094A0811070470040005038B5104B0546D3F878
S315080094B080300C4603F00303022B0BD0032B0DD090
S315080094C0012B0FD1FFF708F80E2305B1286004B168
S315080094D0236038BDFFF74AF80723F6E7FEF7F6FFDD
S315080094E00623F2E700231846EFE700BF0080005086
S315080094F038B5174B0546D3F820310C4603F0070359
S31508009500013B052B20D8DFE803F0030B130F171BCD
S31508009510FEF7DCFF052305B1286004B1236038BDDA
S31508009520FFF70AF80323F6E7FFF720F80723F2E721
S31508009530FFF718F80223EEE7FEF7C8FF0623EAE767
S31508009540FEF7FAFF0423E6E700231846E3E700BF21
S315080095500080005038B5174B0546D3F828310C461D
S3150800956003F00703013B052B20D8DFE803F00313BC
S315080095701B0F0B17FEF7AAFF052305B1286004B1D8
S31508009580236038BDFEF7A2FF0623F6E7FEF7EEFFD7
S315080095900723F2E7FEF7D0FF0323EEE7FEF7CCFF3B
S315080095A00423EAE7FEF7DEFF0223E6E70023184670
S315080095B0E3E700BF0080005073B50D460021114B4C
S315080095C00191D3F88041064604F00304022C13D017
S315080095D0032C0CD0012C13D101A8FFF789FF102406
S315080095E00EB1019B336005B12C6002B070BDFEF769
S315080095F0BDFF07240190F3E7FEF7B4FF0190EFE7FC
S315080096000C46EDE700800050002337B50193154B53
S315080096100546D3F820320C4603F00703013B032B1B
S315080096201ED8DFE803F0020E1318002101A8FFF781
S3150800963091FF12230DB1019A2A6004B1236003B089
S3150800964030BDFEF793FF07230190F3E728F028FFC4
S315080096500A230190EEE7FEF7CBFF09230190E9E71D
S315080096600023E7E70080005038B5104B0546D3F8CD
S3150800967040310C4603F00303022B0BD0032B0DD00D
S31508009680012B0FD128F00CFF0A2305B1286004B17D
S31508009690236038BDFEF7ACFF0923F6E728F003FF81
S315080096A00C23F2E700231846EFE700BF00800050BE
S315080096B0002337B50193164B0546D3F860320C469E
S315080096C003F00703013B032B1FD8DFE803F0020E64
S315080096D01914002101A8FFF70BFF10230DB1019AF9
S315080096E02A6004B1236003B030BD002101A8FFF74A
S315080096F0BBFF1123F2E7FEF739FF07230190EDE7D9
S31508009700FEF730FF02230190E8E70023E6E700BFF3
S3150800971000800050002337B50193164B0546D3F851
S3150800972094320C4603F00703013B032B1FD8DFE8EE
S3150800973003F0020E1914002101A8FFF7D9FE102321
S315080097400DB1019A2A6004B1236003B030BD00212F
S3150800975001A8FFF789FF1123F2E7FEF707FF0723A2
S315080097600190EDE7FEF7FEFE02230190E8E70023ED
S31508009770E6E700BF0080005038B5134B0546D3F81E
S3150800978000320C4603F00703013B032B18D8DFE829
S3150800979003F0020A0E1228F083FE0A2305B1286098
S315080097A004B1236038BDFEF723FF0923F6E728F046
S315080097B07AFE0C23F2E7FEF7A9FE0F23800AEDE7EF
S315080097C000231846EAE700BF0080005038B5134B5F
S315080097D00546D3F808320C4603F00703013B032B72
S315080097E018D8DFE803F0020A0E1228F059FE0A23F9
S315080097F005B1286004B1236038BDFEF7F9FE0923D8
S31508009800F6E728F050FE0C23F2E7FEF77FFE0F235B
S31508009810800AEDE700231846EAE700BF00800050FB
S3150800982038B5104B0546D3F840320C4603F003030F
S31508009830022B0BD0032B0DD0012B0FD128F030FEB5
S315080098400A2305B1286004B1236038BDFEF7D0FEAF
S315080098500923F6E728F027FE0C23F2E7002318462B
S31508009860EFE700BF0080005038B5104B0546D3F827
S3150800987060310C4603F00303022B0BD0032B0DD0EB
S31508009880012B0FD128F00CFE0A2305B1286004B17C
S31508009890236038BDFEF7ACFE0923F6E728F003FE81
S315080098A00C23F2E700231846EFE700BF00800050BC
S315080098B0B0F5207F1FD009D8B0F5007F15D003D8A2
S315080098C068B1B0F5C07F0AD000200CE0B0F5607F23
S315080098D0FAD10B4BD3F88000C0F3011003E0084B14
S315080098E0186FC0F3033001307047054BD3F890006A
S315080098F0C0F30460F7E7024B186FC0F38020F2E765
S315080099000080005002464FF48030104B10B5986620
S315080099100020FFF7CDFF504341F671320C4BDC694E
S31508009920DA635A6804F4803422F4401259B90949B2
S3150800993088428CBF4FF480100020104358600CB149
S315080099400022DA6310BD0449F2E700BF0090005018
S3150800995000000350005A6202002D3101430905D068
S31508009960012B0DD0022B094B18BF002300F01F0056
S3150800997041B103F58053012202FA00F018607047DE
S31508009980034BF3E703F50053F5E700BF6880005083
S31508009990648000501FB5002180280446CDE90011D7
S315080099A000F0A58035D85E2846D85E2844D8DFE87A
S315080099B000F0A243434343434343434343434343A0
S315080099C04343434343434343434343434343434359
S315080099D04343A2AAA2AAB9B9B9B9B9AAC34DD971BA
S315080099E04DAAAAAA4343434343434343AAAAAA798F
S315080099F0E3AA43434343434343434343434343B9AC
S31508009A00A2A2A2DE4D4DE8885EBE43434343439976
S31508009A10A200B0F5B06F00F08F802DD8B0F5207F8A
S31508009A2071D00CD8B0F5C07F65D0B0F5007F65D091
S31508009A30B0F5807F00F08580009804B010BDB0F5C1
S31508009A40607F6AD00DD8B0F5407FF5D1FEF75EFD90
S31508009A5002464FF42070FFF72BFFB2FBF0F04008E8
S31508009A6047E0B0F5806F5DD0B0F5A06FE4D1002176
S31508009A706846FFF7C9FDDFE7B0F5106F77D016D84F
S31508009A80B0F5E06F78D00AD8B0F5C06F6AD0B0F5F7
S31508009A90D06FD1D100216846FFF76EFECCE7B0F54E
S31508009AA0F06FC9D100216846FFF7DEFEC4E7B0F5BE
S31508009AB0406F3CD013D8B0F5206F62D0B0F5286F50
S31508009AC0BAD10021314B0391D3F8703203F0030366
S31508009AD0012B02D103A8FFF7C7FD039B3BE0B0F5B6
S31508009AE0486FA9D100216846FFF714FEA4E7FEF7E0
S31508009AF0F3FC0090A0E7FEF709FDFAE7FEF7ECFC99
S31508009B000246204604E0FEF701FD02464FF42070A7
S31508009B10FFF7CEFEB2FBF0F0EBE701A8FFF7C4FCB7
S31508009B20019AEEE700216846FFF7E2FC84E7002188
S31508009B306846FFF70FFD7FE700216846FFF73CFD03
S31508009B407AE74FF0E02302911B695B0705D5FEF71C
S31508009B50DDFC0290029B00936EE703A902A8FFF7BB
S31508009B6083FDF7E700216846FFF77EFD64E70021DD
S31508009B706846FFF72BFE5FE700216846FFF750FEB1
S31508009B805AE700216846FFF793FD55E70080005025
S31508009B9008B58020FFF7FEFE034B98429EBF4FF4A0
S31508009BA08032024B1A6708BD005A620200A00050B4
S31508009BB01FB50023B0F5807F019300F0C38064D8F9
S31508009BC05D2855D84C2807D82D2847D823282BD8C0
S31508009BD0019805B05DF804FB4D381028F8D801A3A4
S31508009BE053F820F03B9D0008D19B0008D19B000844
S31508009BF0D19B0008ED9C0008D19B0008D19B00086A
S31508009C00C19D00080B9D0008B19C0008B79D00087F
S31508009C10D19B0008D19B0008D19B0008D19B000866
S31508009C20D19B0008CB9D000824380928D0D801A369
S31508009C3053F820F03B9D00083B9D00083B9D00081B
S31508009C403B9D00083B9D0008D19B0008319D0008FC
S31508009C50D19B0008CD9C0008719D00083D2800F0A6
S31508009C6082803E28B4D1002001A9FFF7D9FDAFE7CD
S31508009C708028ADD15A4B1B6F03F00703013B032B1A
S31508009C80A6D8DFE803F05350878FB0F5F06F6AD097
S31508009C9021D8B0F5B06F4BD00FD8B0F5607F00F083
S31508009CA0858095D3B0F5806F47D0B0F5A06F8FD17A
S31508009CB0002001A9FFF7A8FC8AE7B0F5D06F57D0B6
S31508009CC0B0F5E06FCFD0B0F5C06F81D1002001A903
S31508009CD0FFF7CAFC7CE7B0F5206F71D00BD8B0F55A
S31508009CE0086F4AD0B0F5106F7FF472AF002001A953
S31508009CF0FFF76CFD6CE7B0F5406F5CD0B0F5486FC8
S31508009D0063D0B0F5286F7FF463AF0021344B03911D
S31508009D10D3F8703203F00303012B5BD0022B14BF78
S31508009D200B46152300E00523019351E70223FBE7C1
S31508009D30002001A9FFF740FC4AE7002001A9FFF728
S31508009D40D7FB45E702934FF0E0231B695B0705D570
S31508009D50FEF7DCFB0D230393039BE5E703A902A8A3
S31508009D60FFF782FCF8E7002001A9FFF77DFD2FE742
S31508009D70002001A9FFF700FD2AE7194BD3F80031A7
S31508009D8003F00303022B07D0032B09D0012B0BD1B9
S31508009D90FEF7D2FB0323C7E7FEF72AFC0923C3E72E
S31508009DA028F07CFB0823BFE70123BDE7184601A975
S31508009DB0FFF77AFB0CE7002001A9FFF7CBFB07E7C3
S31508009DC0002001A9FFF774FC02E7002001A9FFF7AC
S31508009DD0A1FCFDE603A8FFF747FC1123A4E700BF93
S31508009DE0008000504FF48012034B5A664FF48032BD
S31508009DF0024B9A62704700BF009000500050005A0C
S31508009E0038B504468020FFF7D3FE032800F0838088
S31508009E104FF48012504B4FF0A0615A6645F60E0378
S31508009E204E4AC2F880304E4B99624FF4803103F5A2
S31508009E3080539962916D11F48031FBD1D4E9000306
S31508009E401B0543EA0063E07B0343207B43EA0043A8
S31508009E50607B43EA0033A07B43EA80131361906971
S31508009E60D4E904531B0643EA856300F00040034324
S31508009E70A07EE57E0343207E43EA0043607E43EAF4
S31508009E8000239361E069136A00280CBF00220822A8
S31508009E9023F00F0343EA000343EA850343EA020378
S31508009EA02E4A304D136237D194F82430916A94F8CB
S31508009EB02000DB000D4043EA401394F821102B43A1
S31508009EC043EA011343F480339362274B916D33EAD7
S31508009ED00101FBD14FF08071214881621369A568A1
S31508009EE023F4700343EA055313614FF0004383617B
S31508009EF094F822300BB91D4B996294F823301BB99C
S31508009F004FF48032194B9A6294F825301BB1134BE3
S31508009F10174AC3F8802038BD022808D111611548B0
S31508009F2091614FF408524FF47F4128F0DAFB0B4950
S31508009F3094F822308A6A94F820001B06154043EAF2
S31508009F40401394F824202B4343EAC20394F82320B1
S31508009F5043EA02438B62D7E7009000500040005A5C
S31508009F600050005AC7FFFEFE030001000060005AB9
S31508009F70F1A7FFFF3440005A014B93F900007047E0
S31508009F8069150020F0B5D0E901434FF400061A4AD6
S31508009F904178057856664FF4D156022702F5B8324D
S31508009FA05662164E4F2977604FF0010728BF4F219A
S31508009FB006F5805677601669F603FCD441EA052152
S31508009FC051611B01417B43EA04230B43017B43EAAE
S31508009FD041039360C37B817B1B0143EA4113417CA8
S31508009FE00B43017C43EA41035360837C13B16FF44E
S31508009FF0D1535362F0BD00BF0090005000100250CC
S3150800A000014B1880704700BF28150020B0F5207F47
S3150800A01010B50C4657D008D8B0F5007F48D003D8FD
S3150800A02030B3B0F5C07F23D010BDB0F5607FFBD14B
S3150800A03029492A48D1F8FC2012F080721EBFD1F8AF
S3150800A040FC3023F08073C1F8FC30D0F88030611EF4
S3150800A05023F0300444EA0114C0F88040002AE3D013
S3150800A0601D4AD2F8FC3043F08073C2F8FC30DBE7B7
S3150800A07028F048FB28F054FB4FF48031184B174A58
S3150800A0801967136F611E23F4704444EA0134146798
S3150800A090FEF73CFA0446FFF7FBF9C0F10201204639
S3150800A0A028F038FB00F02EF8BDE81040FFF770BD29
S3150800A0B00A4A0139D2F8903023F0F85444EA016488
S3150800A0C0C2F89040B0E7054B013C196F21F4806156
S3150800A0D041EA84241C67A7E700ED00E000800050F1
S3150800A0E00090005008B50121022000F0C3FA28F0BC
S3150800A0F009FB28F015FB4FF48032014B1A6708BD9F
S3150800A1000090005008B54FF4C070FFF743FCBDE857
S3150800A1100840044988428CBF022101214FF420706F
S3150800A120FFF774BF80F0FA02B0F5807FF8B50C46E9
S3150800A13000F04E816BD85D285DD84C2804D82D28B0
S3150800A14044D8232828D8F8BD4D381028FBD801A3B1
S3150800A15053F820F0B1A3000847A1000847A100085A
S3150800A16047A10008ABA2000847A1000847A10008BC
S3150800A17065A50008E3A200083BA2000845A500085B
S3150800A18047A1000847A1000847A1000847A1000801
S3150800A19047A1000885A5000824380928D3D801A3B3
S3150800A1A053F820F0B1A30008B1A30008B1A3000832
S3150800A1B0B1A30008B1A3000847A1000891A30008AD
S3150800A1C047A1000871A200087FA400083D2800F0F6
S3150800A1D046813E28B7D1093C032C8CBF0021B04BE1
S3150800A1E0B04A98BF195DD2F8403223F003030B43F7
S3150800A1F0C2F84032A7E78028A5D18B1E062B00F2AD
S3150800A200C480DFE803F0BFADC27EC2C2BC00B0F5B1
S3150800A210F06F00F024813BD8B0F5B06F00F0B8803D
S3150800A2201BD8B0F5607F00F067818CD3B0F5806FDE
S3150800A23000F0BE80B0F5A06F85D1073C0B2C8CBF13
S3150800A2400021994B974A98BF195DD2F8203223F01E
S3150800A25007030B43C2F8203275E7B0F5D06F00F05C
S3150800A2600E81B0F5E06FB6D0B0F5C06F7FF46BAF76
S3150800A270093C032C8CBF00218C4B8A4A98BF195D78
S3150800A280D2F8403123F003030B43C2F840315AE7B2
S3150800A290B0F5206F00F0668117D8B0F5086F00F0AA
S3150800A2A01B81B0F5106F7FF44EAF093C062C8CBFAE
S3150800A2B000217F4B7B4A98BF195DD2F8083223F0FC
S3150800A2C007030B43C2F808323DE7B0F5406F00F0CC
S3150800A2D03981B0F5486F00F05581B0F5286F7FF4E5
S3150800A2E032AF112C00F05E81152C14BF002102211B
S3150800A2F06C4AD2F8703223F003030B43C2F870326B
S3150800A30021E7002502264FF480370121022000F0BC
S3150800A310B1F928F0F7F928F003FA664B614A1F6786
S3150800A320136F23F0070333431367FEF7EFF8064668
S3150800A330FFF7AEF8C0F10201304628F0EBF901212B
S3150800A340002000F0D7F9FFF7DDFEFFF721FC002D0E
S3150800A3507FF4F9AE032C7FF4F6AE574B9F62F2E614
S3150800A3604FF48012534B0E465A664FF48032534BC5
S3150800A3709D6A03F58053C5F300659A62C3E7002515
S3150800A3800426C0E700250126BDE700252E46BAE7C4
S3150800A390023C0E2C8CBF0021494B424A98BF195DDE
S3150800A3A0D2F8803123F003030B43C2F88031CAE6A2
S3150800A3B0023C052C8CBF0021424B3A4A98BF195DD6
S3150800A3C0D2F8203123F007030B43C2F82031BAE64E
S3150800A3D0A1F10904082C3FF6B6AE01A353F824F000
S3150800A3E005A4000805A4000847A1000805A400085C
S3150800A3F033A4000847A1000847A1000847A10008A0
S3150800A40005A400084FF48032264B2F49586E03F5F1
S3150800A41080535A664B6A43F001034B62C1035CBF23
S3150800A4202A4B5A664FF0E022136923F0040313619E
S3150800A43089E64FF480321B4B2349586E03F5805347
S3150800A4405A664B6A23F001034B62C3035CBF1F4B7A
S3150800A4505A664FF0E022136943F00403E7E7093C24
S3150800A460032C8CBF00211A4B0E4A98BF195DD2F8EF
S3150800A470603123F003030B43C2F8603163E6093CFD
S3150800A480062C8CBF0021134B064A98BF195DD2F8DB
S3150800A490003223F007030B43C2F8003253E600BF2D
S3150800A4A0A0F50308008000506FF50308A0F503081F
S3150800A4B058F50308009000500060005A0040005A02
S3150800A4C08BF503089AF5030800C0075000A0005052
S3150800A4D0A0F5030858F50308CC1E062C8CBF0021EE
S3150800A4E0314B324A98BF195DD2F8003123F0030385
S3150800A4F00B43C2F8003126E62D49063CD1F8FC206C
S3150800A50012F080721EBFD1F8FC3023F08073C1F8B8
S3150800A510FC30082C8CBF0020264B244998BF185DB8
S3150800A520D1F8803023F003030343C1F88030002AB2
S3150800A5303FF409AE1E4AD2F8FC3043F08073C2F8E5
S3150800A540FC3000E6023C052C8CBF00211A4B174A4A
S3150800A55098BF195DD2F8283123F007030B43C2F8D8
S3150800A5602831F0E5023C0F2C8CBF0021134B0F4A13
S3150800A57098BF195DD2F8603223F007030B43C2F87F
S3150800A5806032E0E5023C0F2C8CBF00210C4B074AD9
S3150800A59098BF195DD2F8943223F007030B43C2F82B
S3150800A5A09432D0E50121A3E65FF503080080005048
S3150800A5B000ED00E066F503089AF503087BF5030845
S3150800A5C07BF50308054B420953F8223000F01F00BB
S3150800A5D023FA00F0C04300F00100704700E100E0F4
S3150800A5E0024A536B0342FCD1704700BF0040095032
S3150800A5F0044A4178536F23F4407343EA01235367AF
S3150800A600704700BF004000500A4A10B51369044657
S3150800A61043F00403136105F0DDF928F0B3F830BF01
S3150800A62028F0B1F805F0EAF91CB9BDE81040FDF7C5
S3150800A6306DBF10BD00ED00E0084A10B51369044669
S3150800A64043F00403136105F0C5F930BF05F0D6F9E8
S3150800A6501CB9BDE81040FDF759BF10BD00ED00E07C
S3150800A660034A0179D36E23F030030B43D366704750
S3150800A67000400050F8B504461C4BD3F88420D10698
S3150800A680FBD4D3F88430C3F381139C422CD0FDF756
S3150800A69023FF012C064602D1214628F03BF828F074
S3150800A6A059F84FF00072124B07465A66204628F0B2
S3150800A6B06DF84FF480630D4D621E93402B676B6EE9
S3150800A6C09A0103D4D5F884309B060AD5384628F073
S3150800A6D045F8022C08D13046BDE8F840002128F09C
S3150800A6E019B8D5F88430EAE7F8BD00BF0040005035
S3150800A6F00060005007B518B90191FDF7EDFE019904
S3150800A700064B1B7843B1064B984205D8012003B087
S3150800A7105DF804EBFFF7AEBF0220F8E7A44A002075
S3150800A720005A62020278034B012100201A70FFF7D3
S3150800A730E1BF00BFA44A00204FF00042154B10B5F8
S3150800A7405A664AF6CD3314494C6C0B6404F001047E
S3150800A75088B90120FFF744FF4B68DB0704D50F4B88
S3150800A76058600B6BD807FCD514B10B4B0C4A1A640E
S3150800A7702DF0ADFD10BD0B6B1A07FCD42022074B3C
S3150800A7809A620122A3F580535A60034A936A9B068C
S3150800A790FCD5E9E7009000500040095000600950D8
S3150800A7A03254FFFF4FF0004238B5164B01465A6641
S3150800A7B04AF6CD33144C154A656C236443780B204E
S3150800A7C05B0043F00103D363FFF70AFF63688A78E7
S3150800A7D023F4F87343EA02136360CA784B7943EAB1
S3150800A7E00223A3600A798B7943EA02232361087856
S3150800A7F0FFF7A2FFEB0744BF054B23642DF067FD67
S3150800A800012038BD0090005000400950004000501B
S3150800A8103254FFFF4FF00042124B70B55D6E03F5E0
S3150800A82080535A664AF6CD3304460F4980204E6C4B
S3150800A8300B64FFF7D5FE0B6A23F00F030F2C94BFAA
S3150800A840234343F00F030B62F30744BF074B0B6424
S3150800A850002DA2BF4FF00042054B5A662DF037FD7A
S3150800A86070BD00BF00800050004009503254FFFF01
S3150800A87000A000504FF00042104B70B55D6E03F516
S3150800A88080535A664AF6CD3304460D4980204E6CED
S3150800A8900B64FFF7A5FE0B6A23F4F85343EA042377
S3150800A8A00B62F30744BF074B0B64002DA2BF4FF0A2
S3150800A8B00042054B5A662DF00AFD70BD0080005017
S3150800A8C0004009503254FFFF00A0005010B527F091
S3150800A8D062FF042300F5805100F500520B611361F5
S3150800A8E00B6113610B6113610B611361202341F244
S3150800A8F0020103610023C360836041614FF4A02114
S3150800A9008361836541620549C36103628362C362E9
S3150800A91043630365D164036310BD00BFFF3F0D03A6
S3150800A920F8B505461446084641B9344B9D422FD022
S3150800A930334B9D4208BF5720FFF72CF8AB68DE075C
S3150800A9402ED5B0FBF4F46E68013C16F0010625D04E
S3150800A9502821284627F01BFFAB6C99071AD1AB6C48
S3150800A960DA0719D4AB6C13F0020F0CBF00270627C1
S3150800A970284627F010FF286920F07F4040EA046443
S3150800A9802C61DEB139462846BDE8F84027F03ABFC3
S3150800A9905620D1E70527EBE70927E9E73746EAE72F
S3150800A9A06B68AB6DAF68DB0707F0E00748BF64006C
S3150800A9B0402F1BD003D8DFB1202F1BD0F8BD602F46
S3150800A9C01AD0802FFAD1012604FB06F34101B1FB08
S3150800A9D0F3F30C4A203B02EAC3022846012127F07A
S3150800A9E0D6FE2A63BDE8F84027F0D1BE0626EBE777
S3150800A9F01026E9E70826E7E70426E5E70000015BF5
S3150800AA0000000A50F8FF7F00F8B51E464368044662
S3150800AA100D4617461BB140F6FF7127F0B8FE2046D3
S3150800AA20FFF754FFE9896B7B62690B43298A22F495
S3150800AA304C520B4322F00F0213436361A2682B7E2C
S3150800AA40297B22F0804222F0E202194311436A6907
S3150800AA501143AA68A1601AB9A26842F00042A2602E
S3150800AA60E869002860D0A268017A42EA8152A260A9
S3150800AA70A268817A42EA4142A2608288A16802F409
S3150800AA80C0420A43A260A268417842EA8102A260F3
S3150800AA90A268417B42EAC102A260A268817B42EABF
S3150800AAA00112A260A268817842EA8122A260C27974
S3150800AAB08179520242EA8122E260027802F0FD01BF
S3150800AAC0012908BFE168A2F1020204BF41F00401AE
S3150800AAD0E160012A5E495F4A76D88C4272D05E49A7
S3150800AAE08C420CBF01214FF0FF3102EB411241F2BB
S3150800AAF094414FF0020C42F801C0427A04F58051A5
S3150800AB008A621AB1E26842F40062E260C27A5AB115
S3150800AB10E26842F40042E2604D4A944263D1027B05
S3150800AB204E4902F00F024A6747B197F8202004F50C
S3150800AB30805C002A61D00122CCF820207EB304F57F
S3150800AB40805013B14FF40043836596F82120404B9B
S3150800AB50102A434961D89C425DD03F4B9C420CBFAA
S3150800AB6001234FF0FF330127CF54768C3849B6F5C9
S3150800AB70006F3C4B5FD88C425BD037498C420CBF88
S3150800AB8001214FF0FF3101275F54A36D324323F4AF
S3150800AB90F95323F01E031343A36501238365052197
S3150800ABA0204627F012FEAA6812B16968FFF7B8FEB8
S3150800ABB02046297827F026FEA36CDB4313F4405F72
S3150800ABC0FAD1F8BD002190E78C420AD022498C427E
S3150800ABD00CBF01214FF0FF3102EB411242F29441C2
S3150800ABE087E70021F8E71C4A944201BF027B1B490C
S3150800ABF002F00F02C1F8802096E797F82210E06964
S3150800AC0097F821200A4320F009010A4342F001027D
S3150800AC10CCF81C2092E70023A5E79C4207D00E4BF0
S3150800AC209C420CBF01234FF0FF3302279CE7002309
S3150800AC30FBE70021A7E78C4207D007498C420CBFE7
S3150800AC4001214FF0FF3102279EE70021FBE700BFF5
S3150800AC500000015B00C0035000000A50009003503A
S3150800AC60A74A0020A54A0020072AF7B501F00306DF
S3150800AC7014461F464FF003012CD89500A94000FA48
S3150800AC8005F21C48019127F0CDFD01991A4806FAEC
S3150800AC9005F227F0C7FD194B19499DF82000002F2A
S3150800ACA008BF1946012303FA04F40C60154B16492C
S3150800ACB0002808BF0B461C60144B9DF82400C3F8F7
S3150800ACC020441031A3F6DC33002808BF0B461C606D
S3150800ACD003B0F0BDA2F10805AD00A94000FA05F2DF
S3150800ACE00B48019127F09EFD01990A4806FA05F2DC
S3150800ACF0CFE700BF00C4035008C4035010E4035054
S3150800AD0010D4035014D4035014E4035000E0035045
S3150800AD1004C403500CC403502DE9F04105460F4600
S3150800AD201E4690464AB101233022194C8B4002FB3D
S3150800AD3000443EB304F5825423600F21072F05EB28
S3150800AD40450388BFA7F108044FEA0313114895BFC6
S3150800AD50BC00A40004330C3308FA04F2A1401844DA
S3150800AD6027F060FDB8F1000F0AD101213020084A0A
S3150800AD7001FA07F700FB05223EB102F58252176079
S3150800AD80BDE8F08104F50154D6E702F50152F6E76D
S3150800AD9000C0035030C00350F8B505460E461446A9
S3150800ADA05AB3826803F0030722F44072826027F0E0
S3150800ADB0D1FCAA6882EA072303F440735340AB60C8
S3150800ADC027F0CCFC36B9B5F1B64F17D12E20FEF7D1
S3150800ADD0E1FD0646AB680C4BD85D60430DD06FEAC3
S3150800ADE0C4040444A319B3FBF0F3AA68013B920711
S3150800ADF002D5002B08BF0123AB61F8BD034B9D426A
S3150800AE00E8D12F20E3E700BFA4F503080080065029
S3150800AE1038B500230E4A036400F50053DA634A780E
S3150800AE2004460D4600F108037AB903F58053022259
S3150800AE301A602046D5E901122B7BFFF7ADFF2046A5
S3150800AE402978BDE8384027F0FFBC03F50053EEE744
S3150800AE50FFFF1F00B0F1B64F2DE9F04322D0804B1B
S3150800AE60984240F0FA807F4B402505264FF00008AF
S3150800AE704FF0030C996800F50054C26B12F4C06FCA
S3150800AE8016D0970510D5FD225A7009221A7000228D
S3150800AE90026493F90110012900D15A7093F901004F
S3150800AEA0BDE8F083704BDFE75605EED5FE22EBE7EB
S3150800AEB01F78082F00F2CD80DFE817F009001F0081
S3150800AEC041004C006900740096009E00C2004C8840
S3150800AED00A88E5060AD5120A02F0060242F0F002CE
S3150800AEE0012119704263C1600120D9E702F0FE0210
S3150800AEF0A10748BF42F00102F2E7170607D58021ED
S3150800AF0000F50052D1634FF608721A8062E05206C5
S3150800AF10EAD54A88E563D70604D502221A700B7863
S3150800AF204363E1E7920765D507221A701B7901EB9F
S3150800AF30C3010B89012BD7D10823C360D4E71706B1
S3150800AF40DDD45206D0D54A88E563970752D583F8EB
S3150800AF5000C092E74C880A88E50643BF120A02F049
S3150800AF60060242F0F00202F0FE02640709D51C79D7
S3150800AF7042F0010201EBC4010989012904BF082135
S3150800AF80C160042119700123C3604263ACE7170648
S3150800AF90B5D45706A8D54A88E56352072AD50722A5
S3150800AFA01A70A1E71A795F8801EBC20EBEF80890FD
S3150800AFB0B94511D80132D2B21A714F88A3F8028066
S3150800AFC017F0040FC3D1FF0702D4012A7FF655AF45
S3150800AFD008221A700223B0E7DEF80420791C59808B
S3150800AFE0D25D42630622DBE7170688D457067FF54B
S3150800AFF07BAFE5631E7040E794067FF575AF2026A4
S3150800B0001A7900F5005401EBC2010A89456AE6631C
S3150800B0105C88A24281BF4968661C5E800D555988C6
S3150800B0208A42D5D90424012AC46004D9013A914236
S3150800B03001D10822C2601A78092A3FF428AF53E7DB
S3150800B040D2057FF551AF4FF4807100F50052D163F8
S3150800B0501BE74FF609321A8019E76FF003001FE75E
S3150800B06000800650FC2A0020F02A0020B0F1B64FD6
S3150800B07010B407D01A4B98422ED06FF003005DF833
S3150800B080044B7047174B0269D20744BF2022C2609F
S3150800B0904A88940702D50C89002CEED0520702D5AF
S3150800B0A00A8A002AE9D04FF480721A600022996051
S3150800B0B01A71C023C3604369DB050FD4202200F54B
S3150800B0C00053DA63084A5DF8044BDA63036C43F409
S3150800B0D0FC630364FFF7BEBE044BD4E7436AEAE7A2
S3150800B0E000800650F02A0020FFFF1F00FC2A0020DF
S3150800B0F04369DA01FCD4012300F50050024A436093
S3150800B10053689B07FCD4704700400059F8B50446BD
S3150800B1101546FFF7EDFF0B782D4E03F007024B7827
S3150800B120002B8B7818BF08204FEA031303F070032F
S3150800B13043EA0203CA7808BF0020002A14BF4FF466
S3150800B1408072002203431343C4F88030E26A0B7905
S3150800B15022F0170203F0070313434A79002012016D
S3150800B16002F0100213432A46E362B44224D110289F
S3150800B1700ED10122002604F580535A603346043561
S3150800B18083421BD18B79A6610BB10823E360F8BD16
S3150800B190937817881B0403F480333B43D77805322A
S3150800B1A0002F14BF4FF4003700273B4300F1280750
S3150800B1B044F827300130D8E70020DAE703EB8307A5
S3150800B1C0EF5D17B102FA03F73E430133D8E700BF34
S3150800B1D000400059084608B569B92A20FEF7DAFB87
S3150800B1E0B0B10C4B984206D90B4B9B68C3F302735C
S3150800B1F00133B0FBF3F0094900F5742000F23F2053
S3150800B200B0FBF1F001387F2828BF7F20C0B208BD07
S3150800B2100120F0E7005A62020040005940420F0040
S3150800B22010B50B4C8C4228BF0C461AB92A20FEF7DB
S3150800B230B1FB0246601E0244B2FBF4F0A24228BFEC
S3150800B24000F1FF30032828BF0320C0B210BD00BF9D
S3150800B250005A620210B51048104C002B18BF204641
S3150800B260884228BF084604461AB92A20FEF792FBE8
S3150800B27002469DF808000130B2FBF0F2601E024457
S3150800B280B2FBF4F340F2FF30A24228BF03F1FF33CA
S3150800B290984228BF184610BD80969800404B4C002F
S3150800B2A013B5044601A800F099FB042C8EBF0020B4
S3150800B2B0024B33F8140002B010BD00BFC0F50308F6
S3150800B2C02DE9F04F2DED048B05468FB0DFF834C31A
S3150800B2D008AF0C461646BCE80F000FC79CE80300EB
S3150800B2E087E80300BD4F002239462846FFF798FF36
S3150800B2F06379984238BF18465FFA80FA2846FFF7FE
S3150800B300F7FE207950B92A20FEF744FBB8420146D9
S3150800B31028BFB0FBFAF12846FFF75CFFE3784FEA4F
S3150800B3200A721B0102F0E04203F0300313430004E3
S3150800B330227800F4FE0003430AB143F00203627860
S3150800B3400AB143F00403A2780AB143F008030027C0
S3150800B350AB60E38822892B61638943EA02432B6247
S3150800B3609F4B9D4201D1022F08D1012305F5805537
S3150800B3706B600FB0BDEC048BBDE8F08F002234780B
S3150800B38098489949D6F80880944218BF014623463A
S3150800B3902846CDF800A0FFF75DFF1FFA88F880451C
S3150800B3A0434638BF034605EB07120593936C04F032
S3150800B3B0030123F0435323F41D1323F4435323F0CB
S3150800B3C03F031943737830799B0003F01C0C41EA5C
S3150800B3D00C03B1784FEA07194901C9B21943F37842
S3150800B3E01B0303F4E0430B43010401F4E0210B4380
S3150800B3F0317C490501F460010B437179090701F0B5
S3150800B40040510B439364936C784AC3F30233013B70
S3150800B410042B1ED8DFE803F01D1D03151A00D2F809
S3150800B42080214FEA124B012C16D9022C00F01B8101
S3150800B430059B3A01C3F309006D4B01379850143642
S3150800B4408EE7D2F884211FFA82FBECE7D2F8842132
S3150800B450E7E7D2F88021F6E705EB09039A6CC2F311
S3150800B4600232531E012B614B70D8DFED6C7AD3F88C
S3150800B47080311FFA83F8012209F1B24909F580499A
S3150800B480D9F8481028F4C043C1F3820101F1010C30
S3150800B49002FA0CFC07EE10CA4FEA834B18F4004F69
S3150800B4A0B8EEC79AF6EE008A504A18BF4BF0004B22
S3150800B4B000297BD1002C76D1D2F88C2113B208EE64
S3150800B4C0103AB8EEC88A37EE888A002840F0B48069
S3150800B4D007A800F083FADFED477ADFED476A86EEC4
S3150800B4E0897ADFED466A67EE887A27EE267AF1EEE4
S3150800B4F0006ABBF1004F07EEA67A0BD0DFED406A73
